###############################################################################
#
# IAR ELF Linker V7.30.4.8167/W32 for ARM                 19/Feb/2015  15:58:26
# Copyright 2007-2014 IAR Systems AB.
#
#    Output file  =  
#        C:\Projects\IP122CONTROL\EWARM\IP122CONTROL
#        Configuration\Exe\IP122CONTROL Configuration.out
#    Map file     =  
#        C:\Projects\IP122CONTROL\EWARM\IP122CONTROL
#        Configuration/List\IP122CONTROL Configuration.map
#    Command line =  
#        "C:\Projects\IP122CONTROL\EWARM\IP122CONTROL
#        Configuration\Obj\api_lib.o"
#        "C:\Projects\IP122CONTROL\EWARM\IP122CONTROL
#        Configuration\Obj\api_msg.o"
#        "C:\Projects\IP122CONTROL\EWARM\IP122CONTROL
#        Configuration\Obj\asn1_dec.o"
#        "C:\Projects\IP122CONTROL\EWARM\IP122CONTROL
#        Configuration\Obj\asn1_enc.o"
#        "C:\Projects\IP122CONTROL\EWARM\IP122CONTROL Configuration\Obj\auth.o"
#        "C:\Projects\IP122CONTROL\EWARM\IP122CONTROL
#        Configuration\Obj\autoip.o"
#        "C:\Projects\IP122CONTROL\EWARM\IP122CONTROL Configuration\Obj\chap.o"
#        "C:\Projects\IP122CONTROL\EWARM\IP122CONTROL
#        Configuration\Obj\chpms.o"
#        "C:\Projects\IP122CONTROL\EWARM\IP122CONTROL
#        Configuration\Obj\cmsis_os.o"
#        "C:\Projects\IP122CONTROL\EWARM\IP122CONTROL
#        Configuration\Obj\croutine.o"
#        "C:\Projects\IP122CONTROL\EWARM\IP122CONTROL Configuration\Obj\def.o"
#        "C:\Projects\IP122CONTROL\EWARM\IP122CONTROL Configuration\Obj\dhcp.o"
#        "C:\Projects\IP122CONTROL\EWARM\IP122CONTROL Configuration\Obj\dns.o"
#        "C:\Projects\IP122CONTROL\EWARM\IP122CONTROL Configuration\Obj\err.o"
#        "C:\Projects\IP122CONTROL\EWARM\IP122CONTROL
#        Configuration\Obj\etharp.o"
#        "C:\Projects\IP122CONTROL\EWARM\IP122CONTROL
#        Configuration\Obj\ethernetif.o"
#        "C:\Projects\IP122CONTROL\EWARM\IP122CONTROL
#        Configuration\Obj\event_groups.o"
#        "C:\Projects\IP122CONTROL\EWARM\IP122CONTROL
#        Configuration\Obj\freertos.o"
#        "C:\Projects\IP122CONTROL\EWARM\IP122CONTROL Configuration\Obj\fsm.o"
#        "C:\Projects\IP122CONTROL\EWARM\IP122CONTROL
#        Configuration\Obj\heap_4.o"
#        "C:\Projects\IP122CONTROL\EWARM\IP122CONTROL Configuration\Obj\icmp.o"
#        "C:\Projects\IP122CONTROL\EWARM\IP122CONTROL Configuration\Obj\igmp.o"
#        "C:\Projects\IP122CONTROL\EWARM\IP122CONTROL Configuration\Obj\inet.o"
#        "C:\Projects\IP122CONTROL\EWARM\IP122CONTROL
#        Configuration\Obj\inet_chksum.o"
#        "C:\Projects\IP122CONTROL\EWARM\IP122CONTROL Configuration\Obj\init.o"
#        "C:\Projects\IP122CONTROL\EWARM\IP122CONTROL Configuration\Obj\ip.o"
#        "C:\Projects\IP122CONTROL\EWARM\IP122CONTROL
#        Configuration\Obj\ip_addr.o"
#        "C:\Projects\IP122CONTROL\EWARM\IP122CONTROL
#        Configuration\Obj\ip_frag.o"
#        "C:\Projects\IP122CONTROL\EWARM\IP122CONTROL Configuration\Obj\ipcp.o"
#        "C:\Projects\IP122CONTROL\EWARM\IP122CONTROL Configuration\Obj\lcp.o"
#        "C:\Projects\IP122CONTROL\EWARM\IP122CONTROL Configuration\Obj\list.o"
#        "C:\Projects\IP122CONTROL\EWARM\IP122CONTROL Configuration\Obj\lwip.o"
#        "C:\Projects\IP122CONTROL\EWARM\IP122CONTROL
#        Configuration\Obj\lwip_timers.o"
#        "C:\Projects\IP122CONTROL\EWARM\IP122CONTROL
#        Configuration\Obj\magic.o"
#        "C:\Projects\IP122CONTROL\EWARM\IP122CONTROL Configuration\Obj\main.o"
#        "C:\Projects\IP122CONTROL\EWARM\IP122CONTROL Configuration\Obj\md5.o"
#        "C:\Projects\IP122CONTROL\EWARM\IP122CONTROL Configuration\Obj\mem.o"
#        "C:\Projects\IP122CONTROL\EWARM\IP122CONTROL Configuration\Obj\memp.o"
#        "C:\Projects\IP122CONTROL\EWARM\IP122CONTROL Configuration\Obj\mib2.o"
#        "C:\Projects\IP122CONTROL\EWARM\IP122CONTROL
#        Configuration\Obj\mib_structs.o"
#        "C:\Projects\IP122CONTROL\EWARM\IP122CONTROL
#        Configuration\Obj\msg_in.o"
#        "C:\Projects\IP122CONTROL\EWARM\IP122CONTROL
#        Configuration\Obj\msg_out.o"
#        "C:\Projects\IP122CONTROL\EWARM\IP122CONTROL
#        Configuration\Obj\netbuf.o"
#        "C:\Projects\IP122CONTROL\EWARM\IP122CONTROL
#        Configuration\Obj\netdb.o"
#        "C:\Projects\IP122CONTROL\EWARM\IP122CONTROL
#        Configuration\Obj\netif.o"
#        "C:\Projects\IP122CONTROL\EWARM\IP122CONTROL
#        Configuration\Obj\netifapi.o"
#        "C:\Projects\IP122CONTROL\EWARM\IP122CONTROL Configuration\Obj\pap.o"
#        "C:\Projects\IP122CONTROL\EWARM\IP122CONTROL Configuration\Obj\pbuf.o"
#        "C:\Projects\IP122CONTROL\EWARM\IP122CONTROL Configuration\Obj\port.o"
#        "C:\Projects\IP122CONTROL\EWARM\IP122CONTROL
#        Configuration\Obj\portasm.o"
#        "C:\Projects\IP122CONTROL\EWARM\IP122CONTROL Configuration\Obj\ppp.o"
#        "C:\Projects\IP122CONTROL\EWARM\IP122CONTROL
#        Configuration\Obj\ppp_oe.o"
#        "C:\Projects\IP122CONTROL\EWARM\IP122CONTROL
#        Configuration\Obj\queue.o"
#        "C:\Projects\IP122CONTROL\EWARM\IP122CONTROL
#        Configuration\Obj\randm.o"
#        "C:\Projects\IP122CONTROL\EWARM\IP122CONTROL Configuration\Obj\raw.o"
#        "C:\Projects\IP122CONTROL\EWARM\IP122CONTROL
#        Configuration\Obj\slipif.o"
#        "C:\Projects\IP122CONTROL\EWARM\IP122CONTROL
#        Configuration\Obj\sockets.o"
#        "C:\Projects\IP122CONTROL\EWARM\IP122CONTROL
#        Configuration\Obj\startup_stm32f407xx.o"
#        "C:\Projects\IP122CONTROL\EWARM\IP122CONTROL
#        Configuration\Obj\stats.o"
#        "C:\Projects\IP122CONTROL\EWARM\IP122CONTROL
#        Configuration\Obj\stm32f4xx_hal.o"
#        "C:\Projects\IP122CONTROL\EWARM\IP122CONTROL
#        Configuration\Obj\stm32f4xx_hal_cortex.o"
#        "C:\Projects\IP122CONTROL\EWARM\IP122CONTROL
#        Configuration\Obj\stm32f4xx_hal_crc.o"
#        "C:\Projects\IP122CONTROL\EWARM\IP122CONTROL
#        Configuration\Obj\stm32f4xx_hal_dma.o"
#        "C:\Projects\IP122CONTROL\EWARM\IP122CONTROL
#        Configuration\Obj\stm32f4xx_hal_dma_ex.o"
#        "C:\Projects\IP122CONTROL\EWARM\IP122CONTROL
#        Configuration\Obj\stm32f4xx_hal_eth.o"
#        "C:\Projects\IP122CONTROL\EWARM\IP122CONTROL
#        Configuration\Obj\stm32f4xx_hal_flash.o"
#        "C:\Projects\IP122CONTROL\EWARM\IP122CONTROL
#        Configuration\Obj\stm32f4xx_hal_flash_ex.o"
#        "C:\Projects\IP122CONTROL\EWARM\IP122CONTROL
#        Configuration\Obj\stm32f4xx_hal_flash_ramfunc.o"
#        "C:\Projects\IP122CONTROL\EWARM\IP122CONTROL
#        Configuration\Obj\stm32f4xx_hal_gpio.o"
#        "C:\Projects\IP122CONTROL\EWARM\IP122CONTROL
#        Configuration\Obj\stm32f4xx_hal_msp.o"
#        "C:\Projects\IP122CONTROL\EWARM\IP122CONTROL
#        Configuration\Obj\stm32f4xx_hal_pwr.o"
#        "C:\Projects\IP122CONTROL\EWARM\IP122CONTROL
#        Configuration\Obj\stm32f4xx_hal_pwr_ex.o"
#        "C:\Projects\IP122CONTROL\EWARM\IP122CONTROL
#        Configuration\Obj\stm32f4xx_hal_rcc.o"
#        "C:\Projects\IP122CONTROL\EWARM\IP122CONTROL
#        Configuration\Obj\stm32f4xx_hal_rcc_ex.o"
#        "C:\Projects\IP122CONTROL\EWARM\IP122CONTROL
#        Configuration\Obj\stm32f4xx_hal_sram.o"
#        "C:\Projects\IP122CONTROL\EWARM\IP122CONTROL
#        Configuration\Obj\stm32f4xx_hal_uart.o"
#        "C:\Projects\IP122CONTROL\EWARM\IP122CONTROL
#        Configuration\Obj\stm32f4xx_hal_wwdg.o"
#        "C:\Projects\IP122CONTROL\EWARM\IP122CONTROL
#        Configuration\Obj\stm32f4xx_it.o"
#        "C:\Projects\IP122CONTROL\EWARM\IP122CONTROL
#        Configuration\Obj\stm32f4xx_ll_fsmc.o"
#        "C:\Projects\IP122CONTROL\EWARM\IP122CONTROL Configuration\Obj\sys.o"
#        "C:\Projects\IP122CONTROL\EWARM\IP122CONTROL
#        Configuration\Obj\sys_arch.o"
#        "C:\Projects\IP122CONTROL\EWARM\IP122CONTROL
#        Configuration\Obj\system_stm32f4xx.o"
#        "C:\Projects\IP122CONTROL\EWARM\IP122CONTROL
#        Configuration\Obj\tasks.o"
#        "C:\Projects\IP122CONTROL\EWARM\IP122CONTROL Configuration\Obj\tcp.o"
#        "C:\Projects\IP122CONTROL\EWARM\IP122CONTROL
#        Configuration\Obj\tcp_in.o"
#        "C:\Projects\IP122CONTROL\EWARM\IP122CONTROL
#        Configuration\Obj\tcp_out.o"
#        "C:\Projects\IP122CONTROL\EWARM\IP122CONTROL
#        Configuration\Obj\tcpip.o"
#        "C:\Projects\IP122CONTROL\EWARM\IP122CONTROL
#        Configuration\Obj\timers.o"
#        "C:\Projects\IP122CONTROL\EWARM\IP122CONTROL Configuration\Obj\udp.o"
#        "C:\Projects\IP122CONTROL\EWARM\IP122CONTROL Configuration\Obj\vj.o"
#        --redirect _Printf=_PrintfFull --redirect _Scanf=_ScanfFull -o
#        "C:\Projects\IP122CONTROL\EWARM\IP122CONTROL
#        Configuration\Exe\IP122CONTROL Configuration.out" --map
#        "C:\Projects\IP122CONTROL\EWARM\IP122CONTROL
#        Configuration/List\IP122CONTROL Configuration.map" --config
#        "C:\Program Files (x86)\IAR Systems\Embedded Workbench
#        7.0\arm\config\linker\ST\stm32f407xG.icf" --semihosting --entry
#        __iar_program_start --vfe
#
###############################################################################

*******************************************************************************
*** RUNTIME MODEL ATTRIBUTES
***

CppFlavor       = *
__SystemLibrary = DLib


*******************************************************************************
*** PLACEMENT SUMMARY
***

"A1":  place at 0x08000000 { ro section .intvec };
"P1":  place in [from 0x08000000 to 0x080fffff] { ro };
"P2":  place in [from 0x20000000 to 0x2001ffff] { rw, block CSTACK, block HEAP };

  Section            Kind        Address    Size  Object
  -------            ----        -------    ----  ------
"A1":                                      0x188
  .intvec            ro code  0x08000000   0x188  startup_stm32f407xx.o [1]
                            - 0x08000188   0x188

"P1":                                     0x7e70
  .text              ro code  0x08000188   0xed4  tcp_in.o [1]
  .text              ro code  0x0800105c    0x34  ip_addr.o [1]
  .text              ro code  0x08001090   0x3fa  pbuf.o [1]
  .text              ro code  0x0800148a    0x26  def.o [1]
  .text              ro code  0x080014b0   0x7f4  tcp.o [1]
  .text              ro code  0x08001ca4   0x6b0  tcp_out.o [1]
  .text              ro code  0x08002354   0x110  memp.o [1]
  .text              ro code  0x08002464   0x1d4  lwip_timers.o [1]
  .text              ro code  0x08002638   0x188  tcpip.o [1]
  .text              ro code  0x080027c0   0x2d4  mem.o [1]
  .text              ro code  0x08002a94    0x76  ABImemcpy_unaligned.o [5]
  .text              ro code  0x08002b0a    0x22  zero_init3.o [5]
  .text              ro code  0x08002b2c     0x6  ABImemclr4.o [5]
  .text              ro code  0x08002b34   0x2d4  ip.o [1]
  .text              ro code  0x08002e08   0x550  ip_frag.o [1]
  .text              ro code  0x08003358   0x6f4  etharp.o [1]
  .text              ro code  0x08003a4c   0xb2a  dhcp.o [1]
  .text              ro code  0x08004578   0x198  sys_arch.o [1]
  .text              ro code  0x08004710    0x2a  init.o [1]
  .text              ro code  0x0800473c    0x3a  ABImemset48.o [5]
  .text              ro code  0x08004778    0x7c  raw.o [1]
  .text              ro code  0x080047f4   0x39a  udp.o [1]
  .text              ro code  0x08004b90   0x1de  icmp.o [1]
  .text              ro code  0x08004d6e    0xbe  inet_chksum.o [1]
  .text              ro code  0x08004e2c    0x62  memcmp_unaligned.o [5]
  .text              ro code  0x08004e90   0x10a  netif.o [1]
  .text              ro code  0x08004f9c   0x55c  queue.o [1]
  .text              ro code  0x080054f8   0x6f8  tasks.o [1]
  .text              ro code  0x08005bf0     0x2  stats.o [1]
  .text              ro code  0x08005bf4     0x2  sockets.o [1]
  .text              ro code  0x08005bf8     0x6  ABImemclr.o [5]
  CODE               ro code  0x08005c00    0xb4  portasm.o [1]
  .text              ro code  0x08005cb4   0x19c  port.o [1]
  .text              ro code  0x08005e50    0x8e  list.o [1]
  .text              ro code  0x08005ee0   0x190  heap_4.o [1]
  .text              ro code  0x08006070    0x5e  ABImemset.o [5]
  .text              ro code  0x080060d0   0x6ea  stm32f4xx_hal_eth.o [1]
  .text              ro code  0x080067bc   0x384  ethernetif.o [1]
  .text              ro code  0x08006b40   0x4d0  stm32f4xx_hal_rcc.o [1]
  .text              ro code  0x08007010    0x84  stm32f4xx_hal.o [1]
  .text              ro code  0x08007094   0x1c8  stm32f4xx_hal_gpio.o [1]
  .text              ro code  0x0800725c    0xd8  stm32f4xx_hal_cortex.o [1]
  .text              ro code  0x08007334   0x158  cmsis_os.o [1]
  .text              ro code  0x0800748c   0x1ac  stm32f4xx_hal_msp.o [1]
  .text              ro code  0x08007638   0x2cc  main.o [1]
  .text              ro code  0x08007904    0x20  stm32f4xx_hal_crc.o [1]
  .text              ro code  0x08007924    0x4e  stm32f4xx_hal_sram.o [1]
  .text              ro code  0x08007974   0x150  stm32f4xx_hal_uart.o [1]
  .text              ro code  0x08007ac4    0x40  stm32f4xx_hal_wwdg.o [1]
  .text              ro code  0x08007b04    0x68  lwip.o [1]
  .text              ro code  0x08007b6c    0xd4  stm32f4xx_ll_fsmc.o [1]
  .text              ro code  0x08007c40    0xd0  packbits_init.o [5]
  .text              ro code  0x08007d10     0x6  abort.o [3]
  .text              ro code  0x08007d18    0x14  exit.o [6]
  .text              ro code  0x08007d2c    0x50  system_stm32f4xx.o [1]
  .text              ro code  0x08007d7c    0x28  data_init.o [5]
  .text              ro code  0x08007da4    0x22  fpinit_M.o [4]
  .iar.init_table    const    0x08007dc8    0x2c  - Linker created -
  .text              ro code  0x08007df4    0x20  stm32f4xx_it.o [1]
  .text              ro code  0x08007e14    0x1a  cmain.o [5]
  .text              ro code  0x08007e2e     0x4  low_level_init.o [3]
  .text              ro code  0x08007e32     0x4  exit.o [3]
  .text              ro code  0x08007e38     0xa  cexit.o [5]
  .text              ro code  0x08007e44    0x10  startup_stm32f407xx.o [1]
  .rodata            const    0x08007e54     0xc  main.o [1]
  .text              ro code  0x08007e60     0xc  cstartup_M.o [5]
  .rodata            const    0x08007e6c     0x8  ethernetif.o [1]
  .rodata            const    0x08007e74     0x8  ip_addr.o [1]
  .text              ro code  0x08007e7c     0x4  startup_stm32f407xx.o [1]
  .text              ro code  0x08007e80     0x4  startup_stm32f407xx.o [1]
  .text              ro code  0x08007e84     0x4  startup_stm32f407xx.o [1]
  .text              ro code  0x08007e88     0x4  startup_stm32f407xx.o [1]
  .text              ro code  0x08007e8c     0x4  startup_stm32f407xx.o [1]
  .text              ro code  0x08007e90     0x4  startup_stm32f407xx.o [1]
  .text              ro code  0x08007e94     0x4  startup_stm32f407xx.o [1]
  .text              ro code  0x08007e98     0x4  startup_stm32f407xx.o [1]
  .text              ro code  0x08007e9c     0x4  startup_stm32f407xx.o [1]
  .text              ro code  0x08007ea0     0x4  startup_stm32f407xx.o [1]
  .text              ro code  0x08007ea4     0x4  startup_stm32f407xx.o [1]
  .text              ro code  0x08007ea8     0x4  startup_stm32f407xx.o [1]
  .text              ro code  0x08007eac     0x4  startup_stm32f407xx.o [1]
  .text              ro code  0x08007eb0     0x4  startup_stm32f407xx.o [1]
  .text              ro code  0x08007eb4     0x4  startup_stm32f407xx.o [1]
  .text              ro code  0x08007eb8     0x4  startup_stm32f407xx.o [1]
  .text              ro code  0x08007ebc     0x4  startup_stm32f407xx.o [1]
  .text              ro code  0x08007ec0     0x4  startup_stm32f407xx.o [1]
  .text              ro code  0x08007ec4     0x4  startup_stm32f407xx.o [1]
  .text              ro code  0x08007ec8     0x4  startup_stm32f407xx.o [1]
  .text              ro code  0x08007ecc     0x4  startup_stm32f407xx.o [1]
  .text              ro code  0x08007ed0     0x4  startup_stm32f407xx.o [1]
  .text              ro code  0x08007ed4     0x4  startup_stm32f407xx.o [1]
  .text              ro code  0x08007ed8     0x4  startup_stm32f407xx.o [1]
  .text              ro code  0x08007edc     0x4  startup_stm32f407xx.o [1]
  .text              ro code  0x08007ee0     0x4  startup_stm32f407xx.o [1]
  .text              ro code  0x08007ee4     0x4  startup_stm32f407xx.o [1]
  .text              ro code  0x08007ee8     0x4  startup_stm32f407xx.o [1]
  .text              ro code  0x08007eec     0x4  startup_stm32f407xx.o [1]
  .text              ro code  0x08007ef0     0x4  startup_stm32f407xx.o [1]
  .text              ro code  0x08007ef4     0x4  startup_stm32f407xx.o [1]
  .text              ro code  0x08007ef8     0x4  startup_stm32f407xx.o [1]
  .text              ro code  0x08007efc     0x4  startup_stm32f407xx.o [1]
  .text              ro code  0x08007f00     0x4  startup_stm32f407xx.o [1]
  .text              ro code  0x08007f04     0x4  startup_stm32f407xx.o [1]
  .text              ro code  0x08007f08     0x4  startup_stm32f407xx.o [1]
  .text              ro code  0x08007f0c     0x4  startup_stm32f407xx.o [1]
  .text              ro code  0x08007f10     0x4  startup_stm32f407xx.o [1]
  .text              ro code  0x08007f14     0x4  startup_stm32f407xx.o [1]
  .text              ro code  0x08007f18     0x4  startup_stm32f407xx.o [1]
  .text              ro code  0x08007f1c     0x4  startup_stm32f407xx.o [1]
  .text              ro code  0x08007f20     0x4  startup_stm32f407xx.o [1]
  .text              ro code  0x08007f24     0x4  startup_stm32f407xx.o [1]
  .text              ro code  0x08007f28     0x4  startup_stm32f407xx.o [1]
  .text              ro code  0x08007f2c     0x4  startup_stm32f407xx.o [1]
  .text              ro code  0x08007f30     0x4  startup_stm32f407xx.o [1]
  .text              ro code  0x08007f34     0x4  startup_stm32f407xx.o [1]
  .text              ro code  0x08007f38     0x4  startup_stm32f407xx.o [1]
  .text              ro code  0x08007f3c     0x4  startup_stm32f407xx.o [1]
  .text              ro code  0x08007f40     0x4  startup_stm32f407xx.o [1]
  .text              ro code  0x08007f44     0x4  startup_stm32f407xx.o [1]
  .text              ro code  0x08007f48     0x4  startup_stm32f407xx.o [1]
  .text              ro code  0x08007f4c     0x4  startup_stm32f407xx.o [1]
  .text              ro code  0x08007f50     0x4  startup_stm32f407xx.o [1]
  .text              ro code  0x08007f54     0x4  startup_stm32f407xx.o [1]
  .text              ro code  0x08007f58     0x4  startup_stm32f407xx.o [1]
  .text              ro code  0x08007f5c     0x4  startup_stm32f407xx.o [1]
  .text              ro code  0x08007f60     0x4  startup_stm32f407xx.o [1]
  .text              ro code  0x08007f64     0x4  startup_stm32f407xx.o [1]
  .text              ro code  0x08007f68     0x4  startup_stm32f407xx.o [1]
  .text              ro code  0x08007f6c     0x4  startup_stm32f407xx.o [1]
  .text              ro code  0x08007f70     0x4  startup_stm32f407xx.o [1]
  .text              ro code  0x08007f74     0x4  startup_stm32f407xx.o [1]
  .text              ro code  0x08007f78     0x4  startup_stm32f407xx.o [1]
  .text              ro code  0x08007f7c     0x4  startup_stm32f407xx.o [1]
  .text              ro code  0x08007f80     0x4  startup_stm32f407xx.o [1]
  .text              ro code  0x08007f84     0x4  startup_stm32f407xx.o [1]
  .text              ro code  0x08007f88     0x4  startup_stm32f407xx.o [1]
  .text              ro code  0x08007f8c     0x4  startup_stm32f407xx.o [1]
  .text              ro code  0x08007f90     0x4  startup_stm32f407xx.o [1]
  .text              ro code  0x08007f94     0x4  startup_stm32f407xx.o [1]
  .text              ro code  0x08007f98     0x4  startup_stm32f407xx.o [1]
  .text              ro code  0x08007f9c     0x4  startup_stm32f407xx.o [1]
  .text              ro code  0x08007fa0     0x4  startup_stm32f407xx.o [1]
  .text              ro code  0x08007fa4     0x4  startup_stm32f407xx.o [1]
  .text              ro code  0x08007fa8     0x4  startup_stm32f407xx.o [1]
  .text              ro code  0x08007fac     0x4  startup_stm32f407xx.o [1]
  .text              ro code  0x08007fb0     0x4  startup_stm32f407xx.o [1]
  .text              ro code  0x08007fb4     0x4  startup_stm32f407xx.o [1]
  .text              ro code  0x08007fb8     0x4  startup_stm32f407xx.o [1]
  .text              ro code  0x08007fbc     0x4  startup_stm32f407xx.o [1]
  .text              ro code  0x08007fc0     0x4  startup_stm32f407xx.o [1]
  .text              ro code  0x08007fc4     0x4  startup_stm32f407xx.o [1]
  .text              ro code  0x08007fc8     0x4  startup_stm32f407xx.o [1]
  .text              ro code  0x08007fcc     0x4  startup_stm32f407xx.o [1]
  .text              ro code  0x08007fd0     0x4  startup_stm32f407xx.o [1]
  .rodata            const    0x08007fd4     0x0  zero_init3.o [5]
  .rodata            const    0x08007fd4     0x0  packbits_init.o [5]
  Initializer bytes  const    0x08007fd4    0x24  <for P2 s0>
                            - 0x08007ff8  0x7e70

"P2":                                     0xcab0
  P2 s0                       0x20000000    0xe8  <Init block>
    .data            inited   0x20000000    0x9c  tasks.o [1]
    .data            inited   0x2000009c    0x20  tcp.o [1]
    .data            inited   0x200000bc    0x14  system_stm32f4xx.o [1]
    .data            inited   0x200000d0     0xc  port.o [1]
    .data            inited   0x200000dc     0x8  udp.o [1]
    .data            inited   0x200000e4     0x4  dhcp.o [1]
  .bss               zero     0x200000e8  0x3c18  heap_4.o [1]
  .bss               zero     0x20003d00  0x316c  memp.o [1]
  .bss               zero     0x20006e6c  0x30ec  ethernetif.o [1]
  .bss               zero     0x20009f58   0x664  mem.o [1]
  .bss               zero     0x2000a5bc   0x164  main.o [1]
  .bss               zero     0x2000a720   0x150  stats.o [1]
  .bss               zero     0x2000a870    0xc8  etharp.o [1]
  .bss               zero     0x2000a938    0x8c  tasks.o [1]
  .bss               zero     0x2000a9c4    0x40  lwip.o [1]
  .bss               zero     0x2000aa04    0x34  dhcp.o [1]
  .bss               zero     0x2000aa38    0x2c  tcp_in.o [1]
  .bss               zero     0x2000aa64    0x10  ip.o [1]
  .bss               zero     0x2000aa74     0xc  netif.o [1]
  .bss               zero     0x2000aa80     0xc  tcpip.o [1]
  .bss               zero     0x2000aa8c     0x8  ip_frag.o [1]
  .bss               zero     0x2000aa94     0x4  lwip_timers.o [1]
  .bss               zero     0x2000aa98     0x4  lwip_timers.o [1]
  .bss               zero     0x2000aa9c     0x4  raw.o [1]
  .bss               zero     0x2000aaa0     0x4  stm32f4xx_hal.o [1]
  .bss               zero     0x2000aaa4     0x4  stm32f4xx_hal_msp.o [1]
  .bss               zero     0x2000aaa8     0x2  ip.o [1]
  .bss               zero     0x2000aaaa     0x2  sys_arch.o [1]
  .bss               zero     0x2000aaac     0x1  etharp.o [1]
  .bss               zero     0x2000aaad     0x1  pbuf.o [1]
  .bss               zero     0x2000aaae     0x1  tcp.o [1]
  CSTACK                      0x2000aab0  0x2000  <Block>
    CSTACK           uninit   0x2000aab0  0x2000  <Block tail>
                            - 0x2000cab0  0xcab0


*******************************************************************************
*** INIT TABLE
***

          Address     Size
          -------     ----
Zero (__iar_zero_init3)
    1 destination range, total size 0xa9c7:
          0x200000e8  0xa9c7

Copy/packbits (__iar_packbits_init3)
    1 source range, total size 0x24 (15% of destination):
          0x08007fd4    0x24
    1 destination range, total size 0xe8:
          0x20000000    0xe8



*******************************************************************************
*** MODULE SUMMARY
***

    Module                  ro code  ro data  rw data
    ------                  -------  -------  -------
C:\Projects\IP122CONTROL\EWARM\IP122CONTROL Configuration\Obj: [1]
    cmsis_os.o                  344
    def.o                        38
    dhcp.o                    2 858        1       56
    etharp.o                  1 780               201
    ethernetif.o                900        8   12 524
    heap_4.o                    400            15 384
    icmp.o                      478
    inet_chksum.o               190
    init.o                       42
    ip.o                        724                18
    ip_addr.o                    52        8
    ip_frag.o                 1 360                 8
    list.o                      142
    lwip.o                      104                64
    lwip_timers.o               468                 8
    main.o                      716       12      356
    mem.o                       724             1 636
    memp.o                      272            12 652
    netif.o                     266                12
    pbuf.o                    1 018                 1
    port.o                      412        2       12
    portasm.o                   180
    queue.o                   1 372
    raw.o                       124                 4
    sockets.o                     2
    startup_stm32f407xx.o       752
    stats.o                       2               336
    stm32f4xx_hal.o             132                 4
    stm32f4xx_hal_cortex.o      216
    stm32f4xx_hal_crc.o          32
    stm32f4xx_hal_eth.o       1 770
    stm32f4xx_hal_gpio.o        456
    stm32f4xx_hal_msp.o         428                 4
    stm32f4xx_hal_rcc.o       1 232
    stm32f4xx_hal_sram.o         78
    stm32f4xx_hal_uart.o        336
    stm32f4xx_hal_wwdg.o         64
    stm32f4xx_it.o               32
    stm32f4xx_ll_fsmc.o         212
    sys_arch.o                  408                 2
    system_stm32f4xx.o           80        3       20
    tasks.o                   1 784       24      296
    tcp.o                     2 036        5       33
    tcp_in.o                  3 796                44
    tcp_out.o                 1 712
    tcpip.o                     392                12
    udp.o                       922        1        8
    -------------------------------------------------
    Total:                   31 838       64   43 695

command line: [2]
    -------------------------------------------------
    Total:

dl7M_tlf.a: [3]
    abort.o                       6
    exit.o                        4
    low_level_init.o              4
    -------------------------------------------------
    Total:                       14

m7M_tls.a: [4]
    fpinit_M.o                   34
    -------------------------------------------------
    Total:                       34

rt7M_tl.a: [5]
    ABImemclr.o                   6
    ABImemclr4.o                  6
    ABImemcpy_unaligned.o       118
    ABImemset.o                  94
    ABImemset48.o                58
    cexit.o                      10
    cmain.o                      26
    cstartup_M.o                 12
    data_init.o                  40
    memcmp_unaligned.o           98
    packbits_init.o             208
    zero_init3.o                 34
    -------------------------------------------------
    Total:                      710

shb_l.a: [6]
    exit.o                       20
    -------------------------------------------------
    Total:                       20

    Gaps                         34        2
    Linker created                        44    8 192
-----------------------------------------------------
    Grand Total:             32 650      110   51 887


*******************************************************************************
*** ENTRY LIST
***

Entry                      Address    Size  Type      Object
-----                      -------    ----  ----      ------
.iar.init_table$$Base   0x08007dc8           --   Gb  - Linker created -
.iar.init_table$$Limit  0x08007df4           --   Gb  - Linker created -
?main                   0x08007e15          Code  Gb  cmain.o [5]
AHBPrescTable           0x200000bc    0x10  Data  Gb  system_stm32f4xx.o [1]
APBAHBPrescTable        0x08007000    0x10  Data  Gb  stm32f4xx_hal_rcc.o [1]
CSTACK$$Base            0x2000aab0           --   Gb  - Linker created -
CSTACK$$Limit           0x2000cab0           --   Gb  - Linker created -
DMARxDscrTab            0x20006eb8    0x80  Data  Gb  ethernetif.o [1]
DMATxDscrTab            0x20006f38    0x80  Data  Gb  ethernetif.o [1]
ETH_FlushTransmitFIFO   0x08006789    0x24  Code  Lc  stm32f4xx_hal_eth.o [1]
ETH_IRQHandler          0x08007e0b     0x6  Code  Gb  stm32f4xx_it.o [1]
ETH_MACDMAConfig        0x08006663    0xec  Code  Lc  stm32f4xx_hal_eth.o [1]
FSMC_Initialized        0x2000aaa4     0x4  Data  Lc  stm32f4xx_hal_msp.o [1]
FSMC_NORSRAM_Extended_Timing_Init
                        0x08007bf5    0x48  Code  Gb  stm32f4xx_ll_fsmc.o [1]
FSMC_NORSRAM_Init       0x08007b6d    0x4c  Code  Gb  stm32f4xx_ll_fsmc.o [1]
FSMC_NORSRAM_Timing_Init
                        0x08007bb9    0x3c  Code  Gb  stm32f4xx_ll_fsmc.o [1]
HAL_CRC_Init            0x08007905    0x20  Code  Gb  stm32f4xx_hal_crc.o [1]
HAL_CRC_MspInit         0x080074a5    0x14  Code  Gb  stm32f4xx_hal_msp.o [1]
HAL_Delay               0x08007075    0x18  Code  Wk  stm32f4xx_hal.o [1]
HAL_ETH_DMARxDescListInit
                        0x080062bb    0x58  Code  Gb  stm32f4xx_hal_eth.o [1]
HAL_ETH_DMATxDescListInit
                        0x08006253    0x68  Code  Gb  stm32f4xx_hal_eth.o [1]
HAL_ETH_ErrorCallback   0x080064f3     0x2  Code  Wk  stm32f4xx_hal_eth.o [1]
HAL_ETH_GetReceivedFrame_IT
                        0x08006411    0x80  Code  Gb  stm32f4xx_hal_eth.o [1]
HAL_ETH_IRQHandler      0x08006491    0x60  Code  Gb  stm32f4xx_hal_eth.o [1]
HAL_ETH_Init            0x080060d1   0x16e  Code  Gb  stm32f4xx_hal_eth.o [1]
HAL_ETH_MspInit         0x080067bd    0x6c  Code  Gb  ethernetif.o [1]
HAL_ETH_ReadPHYRegister
                        0x080064f5    0x68  Code  Gb  stm32f4xx_hal_eth.o [1]
HAL_ETH_RxCpltCallback  0x0800683d     0x8  Code  Gb  ethernetif.o [1]
HAL_ETH_Start           0x080065db    0x52  Code  Gb  stm32f4xx_hal_eth.o [1]
HAL_ETH_TransmitFrame   0x08006333    0xde  Code  Gb  stm32f4xx_hal_eth.o [1]
HAL_ETH_TxCpltCallback  0x080064f1     0x2  Code  Wk  stm32f4xx_hal_eth.o [1]
HAL_ETH_WritePHYRegister
                        0x08006577    0x64  Code  Gb  stm32f4xx_hal_eth.o [1]
HAL_GPIO_Init           0x08007095   0x196  Code  Gb  stm32f4xx_hal_gpio.o [1]
HAL_GetTick             0x0800706f     0x6  Code  Wk  stm32f4xx_hal.o [1]
HAL_IncTick             0x08007065     0xa  Code  Wk  stm32f4xx_hal.o [1]
HAL_Init                0x08007011    0x30  Code  Gb  stm32f4xx_hal.o [1]
HAL_InitTick            0x08007041    0x24  Code  Wk  stm32f4xx_hal.o [1]
HAL_MspInit             0x0800748d    0x18  Code  Gb  stm32f4xx_hal_msp.o [1]
HAL_NVIC_EnableIRQ      0x080072df     0xc  Code  Gb  stm32f4xx_hal_cortex.o [1]
HAL_NVIC_SetPriority    0x0800729b    0x44  Code  Gb  stm32f4xx_hal_cortex.o [1]
HAL_NVIC_SetPriorityGrouping
                        0x08007281    0x1a  Code  Gb  stm32f4xx_hal_cortex.o [1]
HAL_RCC_ClockConfig     0x08006dc1   0x148  Code  Gb  stm32f4xx_hal_rcc.o [1]
HAL_RCC_GetHCLKFreq     0x08006f81    0x20  Code  Gb  stm32f4xx_hal_rcc.o [1]
HAL_RCC_GetPCLK1Freq    0x08006fa1    0x10  Code  Gb  stm32f4xx_hal_rcc.o [1]
HAL_RCC_GetPCLK2Freq    0x08006fb1     0xe  Code  Gb  stm32f4xx_hal_rcc.o [1]
HAL_RCC_GetSysClockFreq
                        0x08006f3b    0x46  Code  Gb  stm32f4xx_hal_rcc.o [1]
HAL_RCC_OscConfig       0x08006b41   0x26e  Code  Gb  stm32f4xx_hal_rcc.o [1]
HAL_SRAM_Init           0x08007925    0x4e  Code  Gb  stm32f4xx_hal_sram.o [1]
HAL_SRAM_MspInit        0x080075b3    0x3a  Code  Gb  stm32f4xx_hal_msp.o [1]
HAL_SYSTICK_Config      0x080072f3    0x28  Code  Gb  stm32f4xx_hal_cortex.o [1]
HAL_UART_Init           0x08007975    0x20  Code  Gb  stm32f4xx_hal_uart.o [1]
HAL_UART_MspInit        0x080074b9    0x9c  Code  Gb  stm32f4xx_hal_msp.o [1]
HAL_WWDG_Init           0x08007ac5    0x40  Code  Gb  stm32f4xx_hal_wwdg.o [1]
HAL_WWDG_MspInit        0x0800759f    0x14  Code  Gb  stm32f4xx_hal_msp.o [1]
InStream_Read           0x08007c41    0x22  Code  Lc  packbits_init.o [5]
MX_GPIO_Init            0x080077ff    0x92  Code  Lc  main.o [1]
MX_LWIP_Init            0x08007b05    0x5a  Code  Gb  lwip.o [1]
NVIC_GetPriorityGrouping
                        0x0800725d     0xa  Code  Lc  stm32f4xx_hal_cortex.o [1]
NVIC_SetPriority        0x08007267    0x1a  Code  Lc  stm32f4xx_hal_cortex.o [1]
PendSV_Handler          0x08005c01          Code  Gb  portasm.o [1]
Region$$Table$$Base     0x08007dc8           --   Gb  - Linker created -
Region$$Table$$Limit    0x08007df4           --   Gb  - Linker created -
Rx_Buff                 0x20006fb8  0x17d0  Data  Gb  ethernetif.o [1]
SVC_Handler             0x08005c65          Code  Gb  portasm.o [1]
StartDefaultTask        0x080078e3     0xe  Code  Gb  main.o [1]
SysTick_Handler         0x08007df5    0x16  Code  Gb  stm32f4xx_it.o [1]
SystemClock_Config      0x08007799    0x66  Code  Gb  main.o [1]
SystemCoreClock         0x200000cc     0x4  Data  Gb  system_stm32f4xx.o [1]
SystemInit              0x08007d2d    0x3a  Code  Gb  system_stm32f4xx.o [1]
Tx_Buff                 0x20008788  0x17d0  Data  Gb  ethernetif.o [1]
UART_SetConfig          0x080079d9    0xe0  Code  Lc  stm32f4xx_hal_uart.o [1]
__aeabi_memclr          0x08005bf9          Code  Gb  ABImemclr.o [5]
__aeabi_memclr4         0x08002b2d          Code  Gb  ABImemclr4.o [5]
__aeabi_memset4         0x0800473d          Code  Gb  ABImemset48.o [5]
__aeabi_memset8         0x0800473d          Code  Gb  ABImemset48.o [5]
__cmain                 0x08007e15          Code  Gb  cmain.o [5]
__exit                  0x08007d19    0x14  Code  Gb  exit.o [6]
__iar_Memset4_word      0x08004745          Code  Gb  ABImemset48.o [5]
__iar_Memset8_word      0x08004745          Code  Gb  ABImemset48.o [5]
__iar_Memset_word       0x08006071          Code  Gb  ABImemset.o [5]
__iar_data_init3        0x08007d7d    0x28  Code  Gb  data_init.o [5]
__iar_init_vfp          0x08007da5          Code  Gb  fpinit_M.o [4]
__iar_packbits_init3    0x08007c63    0xae  Code  Gb  packbits_init.o [5]
__iar_program_start     0x08007e61          Code  Gb  cstartup_M.o [5]
__iar_unaligned___aeabi_memcpy
                        0x08002a95          Code  Gb  ABImemcpy_unaligned.o [5]
__iar_unaligned___aeabi_memcpy4
                        0x08002ab5          Code  Gb  ABImemcpy_unaligned.o [5]
__iar_unaligned___aeabi_memcpy8
                        0x08002ab5          Code  Gb  ABImemcpy_unaligned.o [5]
__iar_unaligned_memcmp  0x08004e2d          Code  Gb  memcmp_unaligned.o [5]
__iar_zero_init3        0x08002b0b    0x22  Code  Gb  zero_init3.o [5]
__low_level_init        0x08007e2f     0x4  Code  Gb  low_level_init.o [3]
__vector_table          0x08000000          Data  Gb  startup_stm32f407xx.o [1]
_call_main              0x08007e21          Code  Gb  cmain.o [5]
_exit                   0x08007e39          Code  Gb  cexit.o [5]
_main                   0x08007e2b          Code  Gb  cmain.o [5]
abort                   0x08007d11     0x6  Code  Gb  abort.o [3]
ackno                   0x2000aa58     0x4  Data  Lc  tcp_in.o [1]
arp_table               0x2000a870    0xc8  Data  Lc  etharp.o [1]
arp_timer               0x080024c1    0x14  Code  Lc  lwip_timers.o [1]
current_header          0x2000aa68     0x4  Data  Gb  ip.o [1]
current_iphdr_dest      0x2000aa70     0x4  Data  Gb  ip.o [1]
current_iphdr_src       0x2000aa6c     0x4  Data  Gb  ip.o [1]
current_netif           0x2000aa64     0x4  Data  Gb  ip.o [1]
defaultTaskHandle       0x2000a71c     0x4  Data  Gb  main.o [1]
dhcp_arp_reply          0x08003c7d    0x5c  Code  Gb  dhcp.o [1]
dhcp_bind               0x08003d83    0xae  Code  Lc  dhcp.o [1]
dhcp_check              0x08003a4d    0x26  Code  Lc  dhcp.o [1]
dhcp_coarse_tmr         0x08003ae5    0x4c  Code  Gb  dhcp.o [1]
dhcp_create_msg         0x08004419    0xfc  Code  Lc  dhcp.o [1]
dhcp_delete_msg         0x0800452d    0x16  Code  Lc  dhcp.o [1]
dhcp_discover           0x08003cdf    0x56  Code  Lc  dhcp.o [1]
dhcp_fine_tmr           0x08003b31    0x30  Code  Gb  dhcp.o [1]
dhcp_option             0x08004043    0x1e  Code  Lc  dhcp.o [1]
dhcp_option_byte        0x08004061    0x10  Code  Lc  dhcp.o [1]
dhcp_option_long        0x08004081    0x2a  Code  Lc  dhcp.o [1]
dhcp_option_short       0x08004071    0x10  Code  Lc  dhcp.o [1]
dhcp_option_trailer     0x08004543    0x34  Code  Lc  dhcp.o [1]
dhcp_parse_reply        0x080040bd   0x20a  Code  Lc  dhcp.o [1]
dhcp_rebind             0x08003ead    0x34  Code  Lc  dhcp.o [1]
dhcp_reboot             0x08003ee9    0x4a  Code  Lc  dhcp.o [1]
dhcp_recv               0x080042c9   0x146  Code  Lc  dhcp.o [1]
dhcp_release            0x08003f63    0x90  Code  Gb  dhcp.o [1]
dhcp_renew              0x08003e3f    0x54  Code  Gb  dhcp.o [1]
dhcp_rx_options_given   0x2000aa04     0xc  Data  Gb  dhcp.o [1]
dhcp_rx_options_val     0x2000aa10    0x28  Data  Gb  dhcp.o [1]
dhcp_select             0x08003a73    0x72  Code  Lc  dhcp.o [1]
dhcp_set_state          0x08004033    0x10  Code  Lc  dhcp.o [1]
dhcp_start              0x08003be3    0x9a  Code  Gb  dhcp.o [1]
dhcp_stop               0x08004007    0x2c  Code  Gb  dhcp.o [1]
dhcp_timeout            0x08003b61    0x82  Code  Lc  dhcp.o [1]
dhcp_timer_coarse       0x080024d5    0x14  Code  Lc  lwip_timers.o [1]
dhcp_timer_fine         0x080024e9     0x8  Code  Lc  lwip_timers.o [1]
etharp_arp_input        0x0800355d   0x120  Code  Lc  etharp.o [1]
etharp_cached_entry     0x2000aaac     0x1  Data  Lc  etharp.o [1]
etharp_cleanup_netif    0x08003535    0x28  Code  Gb  etharp.o [1]
etharp_find_entry       0x080033bd    0xd8  Code  Lc  etharp.o [1]
etharp_free_entry       0x08003359    0x20  Code  Lc  etharp.o [1]
etharp_output           0x080036b9   0x100  Code  Gb  etharp.o [1]
etharp_output_to_arp_index
                        0x0800367d    0x3c  Code  Lc  etharp.o [1]
etharp_query            0x080037c3    0xfa  Code  Gb  etharp.o [1]
etharp_raw              0x080038bd    0xb0  Code  Lc  etharp.o [1]
etharp_request          0x0800396d    0x28  Code  Gb  etharp.o [1]
etharp_send_ip          0x08003495    0x2e  Code  Lc  etharp.o [1]
etharp_tmr              0x08003379    0x44  Code  Gb  etharp.o [1]
etharp_update_arp_entry
                        0x080034c3    0x72  Code  Lc  etharp.o [1]
ethbroadcast            0x08003a3c     0x8  Data  Gb  etharp.o [1]
ethernet_input          0x08003995    0x9a  Code  Gb  etharp.o [1]
ethernetif_init         0x08006adf    0x1e  Code  Gb  ethernetif.o [1]
ethernetif_input        0x08006ab1    0x2e  Code  Gb  ethernetif.o [1]
ethzero                 0x08003a44     0x8  Data  Gb  etharp.o [1]
exit                    0x08007e33     0x4  Code  Gb  exit.o [3]
flags                   0x2000aa38     0x1  Data  Lc  tcp_in.o [1]
gnetif                  0x2000a9c4    0x34  Data  Gb  lwip.o [1]
gw                      0x2000aa00     0x4  Data  Gb  lwip.o [1]
hcrc                    0x2000a714     0x8  Data  Gb  main.o [1]
heth                    0x20006e6c    0x48  Data  Gb  ethernetif.o [1]
hsram1                  0x2000a5bc    0x44  Data  Gb  main.o [1]
huart1                  0x2000a680    0x40  Data  Gb  main.o [1]
huart3                  0x2000a6c0    0x40  Data  Gb  main.o [1]
huart4                  0x2000a600    0x40  Data  Gb  main.o [1]
huart5                  0x2000a640    0x40  Data  Gb  main.o [1]
hwwdg                   0x2000a700    0x14  Data  Gb  main.o [1]
icmp_dest_unreach       0x08004ce3     0x6  Code  Gb  icmp.o [1]
icmp_input              0x08004b91   0x14c  Code  Gb  icmp.o [1]
icmp_send_response      0x08004ced    0x70  Code  Lc  icmp.o [1]
icmp_time_exceeded      0x08004ce9     0x4  Code  Gb  icmp.o [1]
inHandlerMode           0x08007341     0xc  Code  Lc  cmsis_os.o [1]
inet_chksum             0x08004dcb     0xc  Code  Gb  inet_chksum.o [1]
inet_chksum_pbuf        0x08004dd7    0x3a  Code  Gb  inet_chksum.o [1]
inseg                   0x2000aa3c    0x10  Data  Lc  tcp_in.o [1]
ip4_addr_isbroadcast    0x0800105d    0x34  Code  Gb  ip_addr.o [1]
ip_addr_any             0x08007e74     0x4  Data  Gb  ip_addr.o [1]
ip_addr_broadcast       0x08007e78     0x4  Data  Gb  ip_addr.o [1]
ip_frag                 0x080031e5   0x168  Code  Gb  ip_frag.o [1]
ip_frag_free_pbuf_custom_ref
                        0x080031c9     0x8  Code  Lc  ip_frag.o [1]
ip_id                   0x2000aaa8     0x2  Data  Lc  ip.o [1]
ip_input                0x08002b6d   0x18e  Code  Gb  ip.o [1]
ip_output               0x08002db1    0x34  Code  Gb  ip.o [1]
ip_output_if            0x08002d01    0xb0  Code  Gb  ip.o [1]
ip_reass                0x08003051   0x16e  Code  Gb  ip_frag.o [1]
ip_reass_chain_frag_into_datagram_and_validate
                        0x08002f7f    0xd2  Code  Lc  ip_frag.o [1]
ip_reass_dequeue_datagram
                        0x08002f61    0x1e  Code  Lc  ip_frag.o [1]
ip_reass_enqueue_new_datagram
                        0x08002f0d    0x54  Code  Lc  ip_frag.o [1]
ip_reass_free_complete_datagram
                        0x08002e35    0x70  Code  Lc  ip_frag.o [1]
ip_reass_pbufcount      0x2000aa8c     0x2  Data  Lc  ip_frag.o [1]
ip_reass_remove_oldest_datagram
                        0x08002ea5    0x68  Code  Lc  ip_frag.o [1]
ip_reass_timer          0x080024ad    0x14  Code  Lc  lwip_timers.o [1]
ip_reass_tmr            0x08002e09    0x2c  Code  Gb  ip_frag.o [1]
ip_route                0x08002b35    0x38  Code  Gb  ip.o [1]
ipaddr                  0x2000a9f8     0x4  Data  Gb  lwip.o [1]
ipfrag_free_pbuf_custom
                        0x080031d1    0x14  Code  Lc  ip_frag.o [1]
lfree                   0x20009f60     0x4  Data  Lc  mem.o [1]
low_level_init          0x08006845   0x112  Code  Lc  ethernetif.o [1]
low_level_input         0x080069f7    0xba  Code  Lc  ethernetif.o [1]
low_level_output        0x08006957    0xa0  Code  Lc  ethernetif.o [1]
lwip_htonl              0x08001497    0x18  Code  Gb  def.o [1]
lwip_htons              0x0800148b     0xa  Code  Gb  def.o [1]
lwip_init               0x08004711    0x2a  Code  Gb  init.o [1]
lwip_ntohl              0x080014af     0x2  Code  Gb  def.o [1]
lwip_ntohs              0x08001495     0x2  Code  Gb  def.o [1]
lwip_socket_init        0x08005bf5     0x2  Code  Gb  sockets.o [1]
lwip_standard_chksum    0x08004d6f    0x5c  Code  Lc  inet_chksum.o [1]
lwip_stats              0x2000a720   0x150  Data  Gb  stats.o [1]
main                    0x08007639   0x160  Code  Gb  main.o [1]
makeFreeRtosPriority    0x08007335     0xc  Code  Lc  cmsis_os.o [1]
mbox                    0x2000aa88     0x4  Data  Lc  tcpip.o [1]
mem_free                0x080027fd    0xa0  Code  Gb  mem.o [1]
mem_init                0x080027c1    0x3c  Code  Gb  mem.o [1]
mem_malloc              0x08002981   0x10a  Code  Gb  mem.o [1]
mem_mutex               0x2000a5b8     0x4  Data  Lc  mem.o [1]
mem_trim                0x0800289d    0xe4  Code  Gb  mem.o [1]
memp_free               0x08002401    0x22  Code  Gb  memp.o [1]
memp_init               0x08002355    0x66  Code  Gb  memp.o [1]
memp_malloc             0x080023bb    0x46  Code  Gb  memp.o [1]
memp_memory             0x20003d38  0x3134  Data  Lc  memp.o [1]
memp_num                0x08002448    0x1c  Data  Lc  memp.o [1]
memp_sizes              0x0800242c    0x1c  Data  Lc  memp.o [1]
memp_tab                0x20003d00    0x38  Data  Lc  memp.o [1]
netif_add               0x08004e93    0x42  Code  Gb  netif.o [1]
netif_default           0x2000aa7c     0x4  Data  Gb  netif.o [1]
netif_init              0x08004e91     0x2  Code  Gb  netif.o [1]
netif_list              0x2000aa78     0x4  Data  Gb  netif.o [1]
netif_num               0x2000aa74     0x1  Data  Lc  netif.o [1]
netif_set_addr          0x08004ed5    0x1e  Code  Gb  netif.o [1]
netif_set_default       0x08004f4f     0x6  Code  Gb  netif.o [1]
netif_set_down          0x08004f81    0x1a  Code  Gb  netif.o [1]
netif_set_gw            0x08004f3f     0x8  Code  Gb  netif.o [1]
netif_set_ipaddr        0x08004ef3    0x4c  Code  Gb  netif.o [1]
netif_set_netmask       0x08004f47     0x8  Code  Gb  netif.o [1]
netif_set_up            0x08004f61    0x20  Code  Gb  netif.o [1]
netmask                 0x2000a9fc     0x4  Data  Gb  lwip.o [1]
next_timeout            0x2000aa94     0x4  Data  Lc  lwip_timers.o [1]
osDelay                 0x0800738d     0xe  Code  Gb  cmsis_os.o [1]
osKernelStart           0x0800734d     0xa  Code  Gb  cmsis_os.o [1]
osSemaphoreCreate       0x0800739b    0x2c  Code  Gb  cmsis_os.o [1]
osSemaphoreRelease      0x0800742f    0x30  Code  Gb  cmsis_os.o [1]
osSemaphoreWait         0x080073c7    0x3c  Code  Gb  cmsis_os.o [1]
osThreadCreate          0x08007357    0x36  Code  Gb  cmsis_os.o [1]
pbuf_alloc              0x080010dd   0x112  Code  Gb  pbuf.o [1]
pbuf_alloced_custom     0x080011fd    0x50  Code  Gb  pbuf.o [1]
pbuf_cat                0x08001363    0x26  Code  Gb  pbuf.o [1]
pbuf_chain              0x08001389    0x10  Code  Gb  pbuf.o [1]
pbuf_clen               0x08001349    0x10  Code  Gb  pbuf.o [1]
pbuf_copy               0x08001399    0x92  Code  Gb  pbuf.o [1]
pbuf_copy_partial       0x0800142b    0x60  Code  Gb  pbuf.o [1]
pbuf_free               0x080012fd    0x4c  Code  Gb  pbuf.o [1]
pbuf_free_ooseq_callback
                        0x08001091    0x22  Code  Lc  pbuf.o [1]
pbuf_free_ooseq_pending
                        0x2000aaad     0x1  Data  Gb  pbuf.o [1]
pbuf_header             0x0800129b    0x62  Code  Gb  pbuf.o [1]
pbuf_pool_is_empty      0x080010b3    0x1e  Code  Lc  pbuf.o [1]
pbuf_realloc            0x0800124d    0x4e  Code  Gb  pbuf.o [1]
pbuf_ref                0x08001359     0xa  Code  Gb  pbuf.o [1]
prvAddCurrentTaskToDelayedList
                        0x08005a45    0x30  Code  Lc  tasks.o [1]
prvAllocateTCBAndStack  0x08005a75    0x36  Code  Lc  tasks.o [1]
prvCopyDataFromQueue    0x08005477    0x26  Code  Lc  queue.o [1]
prvCopyDataToQueue      0x08005409    0x6e  Code  Lc  queue.o [1]
prvIdleTask             0x080059a5    0x56  Code  Lc  tasks.o [1]
prvInitialiseTCBVariables
                        0x080059fb    0x4a  Code  Lc  tasks.o [1]
prvInsertBlockIntoFreeList
                        0x08006025    0x46  Code  Lc  heap_4.o [1]
prvResetNextTaskUnblockTime
                        0x08005aab    0x1a  Code  Lc  tasks.o [1]
prvTaskExitError        0x08005cd9    0x18  Code  Lc  port.o [1]
prvUnlockQueue          0x0800549d    0x5c  Code  Lc  queue.o [1]
pvPortMalloc            0x08005ee1   0x102  Code  Gb  heap_4.o [1]
pvTaskIncrementMutexHeldCount
                        0x08005bcd    0x12  Code  Gb  tasks.o [1]
pxCurrentTCB            0x20000028     0x4  Data  Gb  tasks.o [1]
pxDelayedTaskList       0x2000002c     0x4  Data  Lc  tasks.o [1]
pxEnd                   0x200000f0     0x4  Data  Lc  heap_4.o [1]
pxOverflowDelayedTaskList
                        0x20000030     0x4  Data  Lc  tasks.o [1]
pxPortInitialiseStack   0x08005cb5    0x24  Code  Gb  port.o [1]
pxReadyTasksLists       0x2000a938    0x8c  Data  Lc  tasks.o [1]
ram                     0x20009f58     0x4  Data  Lc  mem.o [1]
ram_end                 0x20009f5c     0x4  Data  Lc  mem.o [1]
ram_heap                0x20009f64   0x654  Data  Gb  mem.o [1]
raw_input               0x08004779    0x6e  Code  Gb  raw.o [1]
raw_pcbs                0x2000aa9c     0x4  Data  Lc  raw.o [1]
reassdatagrams          0x2000aa90     0x4  Data  Lc  ip_frag.o [1]
recv_data               0x2000aa5c     0x4  Data  Lc  tcp_in.o [1]
recv_flags              0x2000aa39     0x1  Data  Lc  tcp_in.o [1]
s_nextthread            0x2000aaaa     0x2  Data  Lc  sys_arch.o [1]
s_xSemaphore            0x20006eb4     0x4  Data  Gb  ethernetif.o [1]
seqno                   0x2000aa54     0x4  Data  Lc  tcp_in.o [1]
stats_init              0x08005bf1     0x2  Code  Gb  stats.o [1]
sys_arch_mbox_fetch     0x080045e7    0x40  Code  Gb  sys_arch.o [1]
sys_arch_sem_wait       0x08004639    0x3a  Code  Gb  sys_arch.o [1]
sys_init                0x0800467b     0x8  Code  Gb  sys_arch.o [1]
sys_mbox_new            0x08004579    0x32  Code  Gb  sys_arch.o [1]
sys_mbox_post           0x080045ab    0x14  Code  Gb  sys_arch.o [1]
sys_mbox_trypost        0x080045bf    0x28  Code  Gb  sys_arch.o [1]
sys_mbox_valid          0x08004631     0x2  Code  Gb  sys_arch.o [1]
sys_mutex_lock          0x080046bd     0x4  Code  Gb  sys_arch.o [1]
sys_mutex_new           0x08004683    0x34  Code  Gb  sys_arch.o [1]
sys_mutex_unlock        0x080046c1     0x2  Code  Gb  sys_arch.o [1]
sys_thread_new          0x080046cf    0x38  Code  Gb  sys_arch.o [1]
sys_timeout             0x08002523    0x52  Code  Gb  lwip_timers.o [1]
sys_timeouts_init       0x080024f1    0x26  Code  Gb  lwip_timers.o [1]
sys_timeouts_mbox_fetch
                        0x080025b9    0x5c  Code  Gb  lwip_timers.o [1]
sys_untimeout           0x08002575    0x44  Code  Gb  lwip_timers.o [1]
tcp_abandon             0x080015ed    0x8e  Code  Gb  tcp.o [1]
tcp_abort               0x08001683     0x4  Code  Gb  tcp.o [1]
tcp_active_pcbs         0x200000ac     0x4  Data  Gb  tcp.o [1]
tcp_active_pcbs_changed
                        0x2000009c     0x1  Data  Gb  tcp.o [1]
tcp_alloc               0x08001a9f   0x100  Code  Gb  tcp.o [1]
tcp_backoff             0x08001c8c    0x10  Data  Gb  tcp.o [1]
tcp_bound_pcbs          0x200000a4     0x4  Data  Gb  tcp.o [1]
tcp_close               0x080015db    0x12  Code  Gb  tcp.o [1]
tcp_close_shutdown      0x080014d1    0xf8  Code  Lc  tcp.o [1]
tcp_create_segment      0x08001d51    0xaa  Code  Lc  tcp_out.o [1]
tcp_eff_send_mss        0x08001c69    0x22  Code  Gb  tcp.o [1]
tcp_enqueue_flags       0x08001dfb    0xb2  Code  Gb  tcp_out.o [1]
tcp_fasttmr             0x0800196f    0x54  Code  Gb  tcp.o [1]
tcp_init                0x080014b1     0x2  Code  Gb  tcp.o [1]
tcp_input               0x08000189   0x372  Code  Gb  tcp_in.o [1]
tcp_input_pcb           0x2000aa60     0x4  Data  Gb  tcp_in.o [1]
tcp_keepalive           0x08002269    0x2c  Code  Gb  tcp_out.o [1]
tcp_listen_input        0x08000507    0xe2  Code  Lc  tcp_in.o [1]
tcp_listen_pcbs         0x200000a8     0x4  Data  Gb  tcp.o [1]
tcp_next_iss            0x08001c41     0xc  Code  Gb  tcp.o [1]
tcp_oos_insert_segment  0x080008e5    0x62  Code  Lc  tcp_in.o [1]
tcp_output              0x08001ef9   0x15a  Code  Gb  tcp_out.o [1]
tcp_output_alloc_header
                        0x08001ca5    0x70  Code  Lc  tcp_out.o [1]
tcp_output_segment      0x0800206d    0xb4  Code  Lc  tcp_out.o [1]
tcp_parseopt            0x08000fd1    0x72  Code  Lc  tcp_in.o [1]
tcp_pcb_purge           0x08001bab    0x48  Code  Gb  tcp.o [1]
tcp_pcb_remove          0x08001bf3    0x4e  Code  Gb  tcp.o [1]
tcp_persist_backoff     0x08001c9c     0x8  Data  Gb  tcp.o [1]
tcp_process             0x080005e9   0x2ca  Code  Lc  tcp_in.o [1]
tcp_process_refused_data
                        0x080019c3    0x68  Code  Gb  tcp.o [1]
tcp_receive             0x08000955   0x5f2  Code  Lc  tcp_in.o [1]
tcp_recv_null           0x08001a7d    0x22  Code  Gb  tcp.o [1]
tcp_recved              0x080016bb    0x36  Code  Gb  tcp.o [1]
tcp_rexmit              0x080021d5    0x4c  Code  Gb  tcp_out.o [1]
tcp_rexmit_fast         0x08002221    0x48  Code  Gb  tcp_out.o [1]
tcp_rexmit_rto          0x080021ab    0x2a  Code  Gb  tcp_out.o [1]
tcp_rst                 0x08002129    0x82  Code  Gb  tcp_out.o [1]
tcp_seg_copy            0x08001a59    0x24  Code  Gb  tcp.o [1]
tcp_seg_free            0x08001a3d    0x1c  Code  Gb  tcp.o [1]
tcp_segs_free           0x08001a2b    0x12  Code  Gb  tcp.o [1]
tcp_send_empty_ack      0x08001eb9    0x40  Code  Gb  tcp_out.o [1]
tcp_send_fin            0x08001d15    0x3c  Code  Gb  tcp_out.o [1]
tcp_slowtmr             0x080016f1   0x274  Code  Gb  tcp.o [1]
tcp_ticks               0x200000a0     0x4  Data  Gb  tcp.o [1]
tcp_timer               0x2000aaae     0x1  Data  Lc  tcp.o [1]
tcp_timer_ctr           0x2000009d     0x1  Data  Lc  tcp.o [1]
tcp_timer_needed        0x08002487    0x1e  Code  Gb  lwip_timers.o [1]
tcp_tmp_pcb             0x200000b4     0x4  Data  Gb  tcp.o [1]
tcp_tmr                 0x080014b3    0x1e  Code  Gb  tcp.o [1]
tcp_tw_pcbs             0x200000b0     0x4  Data  Gb  tcp.o [1]
tcp_update_rcv_ann_wnd  0x08001687    0x34  Code  Gb  tcp.o [1]
tcp_zero_window_probe   0x080022a1    0x82  Code  Gb  tcp_out.o [1]
tcphdr                  0x2000aa50     0x4  Data  Lc  tcp_in.o [1]
tcpip_callback_with_block
                        0x0800270b    0x58  Code  Gb  tcpip.o [1]
tcpip_init              0x0800277d    0x2c  Code  Gb  tcpip.o [1]
tcpip_init_done         0x2000aa80     0x4  Data  Lc  tcpip.o [1]
tcpip_init_done_arg     0x2000aa84     0x4  Data  Lc  tcpip.o [1]
tcpip_input             0x080026d5    0x36  Code  Gb  tcpip.o [1]
tcpip_tcp_timer         0x08002465    0x22  Code  Lc  lwip_timers.o [1]
tcpip_tcp_timer_active  0x2000aa98     0x4  Data  Lc  lwip_timers.o [1]
tcpip_thread            0x08002639    0x92  Code  Lc  tcpip.o [1]
tcplen                  0x2000aa4c     0x2  Data  Lc  tcp_in.o [1]
ucHeap                  0x20000100  0x3c00  Data  Lc  heap_4.o [1]
ucMaxSysCallPriority    0x200000d0     0x1  Data  Lc  port.o [1]
udp_bind                0x08004a71    0x80  Code  Gb  udp.o [1]
udp_connect             0x08004af1    0x46  Code  Gb  udp.o [1]
udp_init                0x080047f5     0x2  Code  Gb  udp.o [1]
udp_input               0x080047f7   0x1ae  Code  Gb  udp.o [1]
udp_new                 0x08004b75    0x1a  Code  Gb  udp.o [1]
udp_pcbs                0x200000e0     0x4  Data  Gb  udp.o [1]
udp_port                0x200000dc     0x2  Data  Lc  udp.o [1]
udp_recv                0x08004b37     0x6  Code  Gb  udp.o [1]
udp_remove              0x08004b3d    0x28  Code  Gb  udp.o [1]
udp_sendto_if           0x080049a5    0xcc  Code  Gb  udp.o [1]
ulMaxPRIGROUPValue      0x200000d8     0x4  Data  Lc  port.o [1]
ulPortSetInterruptMask  0x08005c51          Code  Gb  portasm.o [1]
uwTick                  0x2000aaa0     0x4  Data  Lc  stm32f4xx_hal.o [1]
uxCriticalNesting       0x200000d4     0x4  Data  Lc  port.o [1]
uxCurrentNumberOfTasks  0x2000004c     0x4  Data  Lc  tasks.o [1]
uxListRemove            0x08005ebb    0x24  Code  Gb  list.o [1]
uxPendedTicks           0x2000005c     0x4  Data  Lc  tasks.o [1]
uxSchedulerSuspended    0x20000070     0x4  Data  Lc  tasks.o [1]
uxTaskNumber            0x20000068     0x4  Data  Lc  tasks.o [1]
uxTasksDeleted          0x20000034     0x4  Data  Lc  tasks.o [1]
uxTopReadyPriority      0x20000054     0x4  Data  Lc  tasks.o [1]
vListInitialise         0x08005e51    0x1a  Code  Gb  list.o [1]
vListInitialiseItem     0x08005e6b     0x6  Code  Gb  list.o [1]
vListInsert             0x08005e89    0x32  Code  Gb  list.o [1]
vListInsertEnd          0x08005e71    0x18  Code  Gb  list.o [1]
vPortClearInterruptMask
                        0x08005c5f          Code  Gb  portasm.o [1]
vPortEnableVFP          0x08005c99          Code  Gb  portasm.o [1]
vPortEnterCritical      0x08005d75    0x2c  Code  Gb  port.o [1]
vPortExitCritical       0x08005da1    0x20  Code  Gb  port.o [1]
vPortFree               0x08005fe3    0x42  Code  Gb  heap_4.o [1]
vPortSetupTimerInterrupt
                        0x08005ddf    0x18  Code  Wk  port.o [1]
vPortStartFirstTask     0x08005c81          Code  Gb  portasm.o [1]
vPortValidateInterruptPriority
                        0x08005df9    0x32  Code  Gb  port.o [1]
vPortYield              0x08005d63    0x12  Code  Gb  port.o [1]
vTaskDelay              0x0800560d    0x46  Code  Gb  tasks.o [1]
vTaskMissedYield        0x0800599d     0x8  Code  Gb  tasks.o [1]
vTaskPlaceOnEventList   0x08005863    0x26  Code  Gb  tasks.o [1]
vTaskPriorityInherit    0x08005adb    0x80  Code  Gb  tasks.o [1]
vTaskSetTimeOutState    0x08005931    0x18  Code  Gb  tasks.o [1]
vTaskStartScheduler     0x08005665    0x4a  Code  Gb  tasks.o [1]
vTaskSuspendAll         0x080056af     0xc  Code  Gb  tasks.o [1]
vTaskSwitchContext      0x08005819    0x4a  Code  Gb  tasks.o [1]
xBlockAllocatedBit      0x200000fc     0x4  Data  Lc  heap_4.o [1]
xDelayedTaskList1       0x20000074    0x14  Data  Lc  tasks.o [1]
xDelayedTaskList2       0x20000088    0x14  Data  Lc  tasks.o [1]
xFreeBytesRemaining     0x200000f4     0x4  Data  Lc  heap_4.o [1]
xMinimumEverFreeBytesRemaining
                        0x200000f8     0x4  Data  Lc  heap_4.o [1]
xNextTaskUnblockTime    0x2000006c     0x4  Data  Lc  tasks.o [1]
xNumOfOverflows         0x20000064     0x4  Data  Lc  tasks.o [1]
xPendingReadyList       0x20000000    0x14  Data  Lc  tasks.o [1]
xPortStartScheduler     0x08005cf1    0x72  Code  Gb  port.o [1]
xPortSysTickHandler     0x08005dc1    0x1e  Code  Gb  port.o [1]
xQueueCreateCountingSemaphore
                        0x080050a1    0x2a  Code  Gb  queue.o [1]
xQueueCreateMutex       0x08005049    0x58  Code  Gb  queue.o [1]
xQueueGenericCreate     0x08005005    0x44  Code  Gb  queue.o [1]
xQueueGenericReceive    0x08005265   0x114  Code  Gb  queue.o [1]
xQueueGenericReset      0x08004f9d    0x68  Code  Gb  queue.o [1]
xQueueGenericSend       0x080050cb   0x10a  Code  Gb  queue.o [1]
xQueueGenericSendFromISR
                        0x080051d5    0x90  Code  Gb  queue.o [1]
xQueueReceiveFromISR    0x0800538b    0x64  Code  Gb  queue.o [1]
xSchedulerRunning       0x20000058     0x4  Data  Lc  tasks.o [1]
xStart                  0x200000e8     0x8  Data  Lc  heap_4.o [1]
xSuspendedTaskList      0x20000038    0x14  Data  Lc  tasks.o [1]
xTaskCheckForTimeOut    0x08005949    0x4c  Code  Gb  tasks.o [1]
xTaskGenericCreate      0x080054f9   0x114  Code  Gb  tasks.o [1]
xTaskGetSchedulerState  0x08005ac5    0x16  Code  Gb  tasks.o [1]
xTaskGetTickCount       0x08005743     0xc  Code  Gb  tasks.o [1]
xTaskIncrementTick      0x08005757    0xb8  Code  Gb  tasks.o [1]
xTaskPriorityDisinherit
                        0x08005b5b    0x72  Code  Gb  tasks.o [1]
xTaskRemoveFromEventList
                        0x080058c5    0x58  Code  Gb  tasks.o [1]
xTaskResumeAll          0x080056bb    0x88  Code  Gb  tasks.o [1]
xTasksWaitingTermination
                        0x20000014    0x14  Data  Lc  tasks.o [1]
xTickCount              0x20000050     0x4  Data  Lc  tasks.o [1]
xYieldPending           0x20000060     0x4  Data  Lc  tasks.o [1]


[1] = C:\Projects\IP122CONTROL\EWARM\IP122CONTROL Configuration\Obj
[2] = command line
[3] = dl7M_tlf.a
[4] = m7M_tls.a
[5] = rt7M_tl.a
[6] = shb_l.a

  32 650 bytes of readonly  code memory
     110 bytes of readonly  data memory
  51 887 bytes of readwrite data memory

Errors: none
Warnings: none
